:100000000C945D000C947A000C947A000C947A00A5
:100010000C947A000C947A000C947A000C941701DA
:100020000C947A000C947A000C947A000C947A0068
:100030000C947A000C947A000C947A000C947A0058
:100040000C9473010C947A000C947A000C947A004E
:100050000C947A000C947A000C947A000C947A0038
:100060000C947A000C947A00000000080002010051
:100070000003040700000000000000000000000072
:10008000240027002A0001020408102040800102F9
:1000900004081020010204081020000000002500C0
:1000A00028002B00040404040404040402020202D5
:1000B0000202030303030303020011241FBECFEF58
:1000C000D8E0DEBFCDBF11E0A0E0B1E0EEE6FCE09D
:1000D00002C005900D92AE39B107D9F721E0AEE923
:1000E000B1E001C01D92A83BB207E1F70E94BD013B
:1000F0000C9435060C9400009091000189130DC0FA
:10010000E8EBF0E0E4919FEF90930001E13009F417
:1001100031C068F1E23009F433C090E0FC01E859E5
:10012000FF4F2491FC01EA57FF4F3491FC01EC553D
:10013000FF4FE491EE23D1F0222351F0233009F454
:100140003AC078F5213009F43CC0223009F43DC0B2
:10015000F0E0EE0FFF1FE656FF4FA591B4918FB769
:10016000F894EC9130953E233C938FBF0895109204
:100170006E00D3CF90916F009D7F90936F00CDCF95
:10018000909170009D7F9093700091E09093B000EB
:100190009091B100987F94609093B1001092B30059
:1001A000BCCF2730A9F02830C9F0243089F68091DF
:1001B00080008F7D03C0809180008F7780938000C6
:1001C000C7CF84B58F7784BDC3CF84B58F7DFBCF78
:1001D0008091B0008F778093B000BACF8091B0004B
:1001E0008F7DF9CF3FB7F8948091A3019091A4013E
:1001F000A091A501B091A60126B5A89B05C02F3FEF
:1002000019F00196A11DB11D3FBFBA2FA92F982F3C
:100210008827BC01CD01620F711D811D911D42E037
:10022000660F771F881F991F4A95D1F708951F926F
:100230000F920FB60F9211242F933F934F935F931A
:100240006F937F938F939F93AF93BF93EF93FF939E
:100250008091AC019091AD01A091AE01B091AF0140
:10026000892B8A2B8B2BD1F19091A701E091A801CA
:10027000F091A9018081892780838091AC019091C0
:10028000AD01A091AE01B091AF01181619061A0682
:100290001B069CF48091AC019091AD01A091AE0140
:1002A000B091AF010197A109B1098093AC0190937E
:1002B000AD01A093AE01B093AF01FF91EF91BF915B
:1002C000AF919F918F917F916F915F914F913F91EE
:1002D0002F910F900FBE0F901F90189580910001E5
:1002E0000E947C00EACF1F920F920FB60F9211244A
:1002F0002F933F938F939F93AF93BF9380919F01D1
:100300009091A001A091A101B091A20130919E0114
:1003100023E0230F2D3758F50196A11DB11D209321
:100320009E0180939F019093A001A093A101B0939F
:10033000A2018091A3019091A401A091A501B09187
:10034000A6010196A11DB11D8093A3019093A40164
:10035000A093A501B093A601BF91AF919F918F91FA
:100360003F912F910F900FBE0F901F90189526E888
:10037000230F0296A11DB11DD2CFCF93DF93CDB72E
:10038000DEB729970FB6F894DEBF0FBECDBF7894C5
:1003900084B5826084BD84B5816084BD85B582608A
:1003A00085BD85B5816085BD80916E00816080933B
:1003B0006E001092810080918100826080938100A4
:1003C00080918100816080938100809180008160B4
:1003D000809380008091B10084608093B10080910F
:1003E000B00081608093B00080917A008460809337
:1003F0007A0080917A00826080937A0080917A00FE
:10040000816080937A0080917A00806880937A007E
:100410001092C1002FE431E03A83298381E091E01A
:1004200098878F83EDE9F1E029813A81E217F3079C
:1004300041F400E010E001151105E9F30E9400000D
:10044000FACFE981FA8161917191FA83E98388EEAB
:1004500093E00E94B6058B01EF81F88521903190E1
:10046000F887EF83809100012B01770F66087708EA
:10047000883029F5E8EBF0E0F491F987F985F7FF8A
:100480006BC0C301B2010E94BD0426E636E646EA0F
:100490005FE30E9421050E9485046B01770FEE083F
:1004A000FF080E94F2004B015C01C114D104E10479
:1004B000F10409F01EC288E00E947C00B3CF8F3F98
:1004C00001F788E080930001E8EBF0E0F491F98710
:1004D000FF3FB9F2F13009F40EC128F1F23071F6A4
:1004E0001092B0001092B1008091B00082608093B1
:1004F000B0008091B10081608093B100ECEAF0E03F
:100500008491E82FF0E0EE0FFF1FE656FF4F859134
:1005100094919093A9018093A801EEE8F0E0849172
:100520008093A70119C014BC15BC84B5826084BD3A
:1005300085B5816085BDECEAF0E08491E82FF0E0BC
:10054000EE0FFF1FE656FF4F85919491EEE8F0E025
:1005500084918093AB011986EEE8F0E04491ECEAD7
:10056000F0E08491882399F090E0880F991FFC01B6
:10057000E458FF4FA591B491FC01E656FF4F259139
:1005800034918FB7F8949C91492B4C938FBF4101C4
:10059000B12CA12C60E072E18AE790E0A501910105
:1005A0000E94EC052B833C834D835E8369017A01B5
:1005B000F1E0CF1AD108E108F10889858D7F09F0B3
:1005C00030C12FEFC216D104E104F10409F00CF49C
:1005D000FDC060E472E48FE090E0A50191010E940B
:1005E000EC0569017A0181E0C81AD108E108F10837
:1005F0009985923009F09EC082E0EFEFCE16D104CB
:10060000E104F10409F00CF46FC060E970ED83E0DF
:1006100090E0A50191010E94EC0569017A01F1E0E9
:10062000CF1AD108E108F10883E02FEFC216D104F8
:10063000E104F10409F00CF457C068E478EE81E0BD
:1006400090E0A50191010E94EC0569017A0181E029
:10065000C81AD108E108F10884E09FEFC916D10457
:10066000E104F10409F00CF43FC064E274EF80E0AF
:1006700090E0A50194010E94EC0569017A01E1E096
:10068000CE1AD108E108F10885E03FEFC316D10486
:10069000E104F10449F140F162E17AE780E090E0A1
:1006A000A50194010E94EC0569017A01F1E0CF1ADD
:1006B000D108E108F10886E02FEFC216D104E10469
:1006C000F10491F088F0CB80DC80ED80FE808AE040
:1006D000F594E794D794C7948A95D1F721E0C21A8C
:1006E000D108E108F10887E09091B100987F892B4B
:1006F0008093B10073C010928000109281008091AD
:100700008100886080938100809181008160809366
:100710008100ECEAF0E08491E82FF0E0EE0FFF1F9B
:10072000E656FF4F85919491EEE8F0E08491809336
:10073000AA0112CF3FEFC316D104E104F10409F07E
:100740000CF46DC068E478EE81E090E0A5019101C1
:100750000E94EC0569017A0181E0C81AD108E1081C
:10076000F108998584E0911190CF83E0EFEFCE16E8
:10077000D104E104F10471F16CF162E17AE780E007
:1007800090E0A50194010E94EC0569017A01F1E075
:10079000CF1AD108E108F10884E02FEFC216D10486
:1007A000E104F104B9F0B0F0CB80DC80ED80FE8094
:1007B0009AE0F594E794D794C7949A95D1F7F1E02D
:1007C000CF1AD108E108F10885E004C081E039853D
:1007D00031118ACF95B5987F892B85BD2FEF3FEFDB
:1007E000A901411451046104710409F042C0F98562
:1007F000F13009F44BC0F23009F45AC0F11141CE86
:10080000C7BC2093B4013093B5014093B601509317
:10081000B70180916E00826080936E0032CE82E0DC
:10082000D6CF91E0C114D10481E0E806F10484F050
:1008300068E478EE81E090E0A50191010E94EC056A
:1008400069017A0191E0C91AD108E108F10893E041
:10085000E985E13019F680918100887F892B8093AA
:1008600081002FEF3FEFA90141145104610471048D
:1008700069F09101220F331FD8010E940B0628EE68
:1008800033E040E050E00E94CA05B1CFD092890029
:10089000C09288002093B0013093B1014093B2011F
:1008A0005093B30180916F00826080936F00E9CD17
:1008B000C092B3002093AC013093AD014093AE01E0
:1008C0005093AF0180917000826080937000D9CD09
:1008D00021E0C21AD108E108F10838EE830E33E0B6
:1008E000931EA11CB11CC114D104E104F10409F44C
:1008F000DCCD0E94F200681979098A099B09683EDB
:1009000073408105910520F7D0CD0E948C04689436
:10091000B1110C941B0508950E94000588F09F57A3
:1009200098F0B92F9927B751B0F0E1F0660F771F13
:10093000881F991F1AF0BA95C9F714C0B13091F009
:100940000E941A05B1E008950C941A05672F782FBC
:100950008827B85F39F0B93FCCF3869577956795CE
:10096000B395D9F73EF490958095709561957F4F3A
:100970008F4F9F4F0895E89409C097FB3EF49095E0
:100980008095709561957F4F8F4F9F4F9923A9F068
:10099000F92F96E9BB279395F695879577956795F7
:1009A000B795F111F8CFFAF4BB0F11F460FF1BC03B
:1009B0006F5F7F4F8F4F9F4F16C0882311F096E9CE
:1009C00011C0772321F09EE8872F762F05C066237C
:1009D00071F096E8862F70E060E02AF09A95660F35
:1009E000771F881FDAF7880F9695879597F90895EE
:1009F00057FD9058440F551F59F05F3F71F04795D0
:100A0000880F97FB991F61F09F3F79F087950895B4
:100A1000121613061406551FF2CF4695F1DF08C0D3
:100A2000161617061806991FF1CF869571056105F0
:100A300008940895E894BB2766277727CB0197F998
:100A400008950E9434050C94A5050E94970538F07E
:100A50000E949E0520F0952311F00C948E050C94B5
:100A6000940511240C941B050E94F80470F3959FC3
:100A7000C1F3950F50E0551F629FF001729FBB2795
:100A8000F00DB11D639FAA27F00DB11DAA1F649F31
:100A90006627B00DA11D661F829F2227B00DA11DE4
:100AA000621F739FB00DA11D621F839FA00D611D6A
:100AB000221F749F3327A00D611D231F849F600D8B
:100AC000211D822F762F6A2F11249F5750409AF0B4
:100AD000F1F088234AF0EE0FFF1FBB1F661F771F40
:100AE000881F91505040A9F79E3F510580F00C940B
:100AF0008E050C941B055F3FE4F3983ED4F3869576
:100B000077956795B795F795E7959F5FC1F7FE2BAA
:100B1000880F911D9695879597F9089597F99F6786
:100B200080E870E060E008959FEF80EC0895002475
:100B30000A941616170618060906089500240A9442
:100B400012161306140605060895092E0394000CC8
:100B500011F4882352F0BB0F40F4BF2B11F460FF57
:100B600004C06F5F7F4F8F4F9F4F089597FB072EF5
:100B700016F4009407D077FD09D00E94120607FCF6
:100B800005D03EF4909581959F4F0895709561959D
:100B90007F4F0895A1E21A2EAA1BBB1BFD010DC0B9
:100BA000AA1FBB1FEE1FFF1FA217B307E407F5071D
:100BB00020F0A21BB30BE40BF50B661F771F881FF9
:100BC000991F1A9469F760957095809590959B018F
:100BD000AC01BD01CF010895052E97FB1EF40094D2
:100BE0000E94030657FD07D00E94CA0507FC03D0E8
:100BF0004EF40C94030650954095309521953F4F47
:100C00004F4F5F4F089590958095709561957F4FF8
:100C10008F4F9F4F08950E942606B7FF0895821BAD
:100C2000930B0895AA1BBB1B51E107C0AA1FBB1F52
:100C3000A617B70710F0A61BB70B881F991F5A9568
:100C4000A9F780959095BC01CD010895A29FB001B0
:100C5000B39FC001A39F700D811D1124911DB29FF0
:0E0C6000700D811D1124911D0895F894FFCF91
:100C6E00FF4A018801B80188014A018801B801EEE6
:100C7E0001B80188014A0126014A018801B801889C
:100C8E00014A018801B801EE01B80188014A012626
:100C9E00014A018801B801EE010B02EE01B801888C
:100CAE00014A018801B80188014A0126014A01085A
:100CBE0000080004000400080008000400040004FA
:100CCE0000040004000200080008000400040008EC
:100CDE0000080004000400040004000400020008E0
:100CEE0000080004000400040004000400040008CE
:0E0CFE000008000400040004000400020000CE
:00000001FF
