:100000000C9461000C947E000C947E000C947E0095
:100010000C947E000C947E000C947E000C947E0068
:100020000C947E000C947E000C947E000C947E0058
:100030000C947E000C947E000C947E000C947E0048
:100040000C942D010C947E000C947E000C947E0088
:100050000C947E000C947E000C947E000C947E0028
:100060000C947E000C947E00000000002400270009
:100070002A0000000000250028002B0000000000DE
:1000800023002600290004040404040404040202DA
:100090000202020203030303030301020408102007
:1000A0004080010204081020010204081020000012
:1000B0000008000201000003040700000000000027
:1000C000000011241FBECFEFD8E0DEBFCDBF11E08E
:1000D000A0E0B1E0ECE2F7E002C005900D92A6309E
:1000E000B107D9F721E0A6E0B1E001C01D92AF3021
:1000F000B207E1F70E9477010C9494030C9400007E
:10010000833081F028F4813099F08230A9F008958D
:100110008730A9F08830C9F08430B1F48091800034
:100120008F7D03C0809180008F7780938000089539
:1001300084B58F7784BD089584B58F7DFBCF809182
:10014000B0008F778093B00008958091B0008F7DCC
:10015000F9CF1F93CF93DF93282F30E0F901E255B9
:10016000FF4F8491F901E656FF4FD491F901EA5708
:10017000FF4FC491CC23A9F0162F81110E9480005B
:10018000EC2FF0E0EE0FFF1FEE58FF4FA591B4915A
:100190008FB7F894EC91111108C0D095DE23DC9351
:1001A0008FBFDF91CF911F910895DE2BF8CFCF93B2
:1001B000DF9390E0FC01E656FF4F24918A579F4F52
:1001C000FC0184918823D1F090E0880F991FFC01F5
:1001D000E859FF4FA591B491FC01EE58FF4FC5912E
:1001E000D49161110EC09FB7F8948C91E22FE095E5
:1001F0008E238C932881E223E8839FBFDF91CF91E8
:1002000008958FB7F894EC91E22BEC938FBFF6CF63
:100210003FB7F89480910B0190910C01A0910D01D2
:10022000B0910E0126B5A89B05C02F3F19F001968D
:10023000A11DB11D3FBFBA2FA92F982F8827BC0140
:10024000CD01620F711D811D911D42E0660F771F68
:10025000881F991F4A95D1F708951F920F920FB6E4
:100260000F9211242F933F938F939F93AF93BF933C
:100270008091070190910801A0910901B0910A01B4
:100280003091060123E0230F2D3758F50196A11D6B
:10029000B11D209306018093070190930801A0935C
:1002A0000901B0930A0180910B0190910C01A0917A
:1002B0000D01B0910E010196A11DB11D80930B019E
:1002C00090930C01A0930D01B0930E01BF91AF91DB
:1002D0009F918F913F912F910F900FBE0F901F9084
:1002E000189526E8230F0296A11DB11DD2CF789450
:1002F00084B5826084BD84B5816084BD85B582602B
:1003000085BD85B5816085BD80916E0081608093DB
:100310006E00109281008091810082608093810044
:100320008091810081608093810080918000816054
:10033000809380008091B10084608093B1008091AF
:10034000B00081608093B00080917A0084608093D7
:100350007A0080917A00826080937A0080917A009E
:10036000816080937A0080917A00806880937A001F
:100370001092C10061E082E00E94D70061E083E05A
:100380000E94D70061E084E00E94D70061E085E030
:100390000E94D70061E086E00E94D70060E08EE016
:1003A0000E94D70060E088E00E94D70080E480933C
:1003B0007C0080917A00806480937A0080917A003A
:1003C00086FDFCCF8091780060917900762F682FB0
:1003D000072E000C880B990B61157105810591059D
:1003E00011F00E9400032EE8222E20E0322E3CE283
:1003F000432E55245394612C712CC5E0D0E000E0CD
:1004000010E00E94B1026B017C01E6EBF0E0849108
:10041000E2EAF0E0A490F101B490BB2009F44EC0F0
:1004200081110E948000EB2DF0E0EE0FFF1FE458D9
:10043000FF4FA591B4918C91A82209F43FC0C70148
:10044000B601A30192010E940903CB01BE010E94E3
:100450006C037C01F2E0EF0EF11C60E08091000182
:100460000E94A900F0920101E092000161E08E2D4E
:100470000E94A9000E9408014B015C0182E3C82E82
:10048000D12CE12CF12C0E940801681979098A0904
:100490009B09683E734081059105A8F321E0C21ACB
:1004A000D108E108F10888EE880E83E0981EA11CAF
:1004B000B11CC114D104E104F10429F7011511059F
:1004C00009F49FCF0E9400009CCF8F929F92AF9221
:1004D000BF92CF92DF92EF92FF92CF93DF93EC0126
:1004E000688179818A819B816115710581059105FA
:1004F00021F464E279ED8BE597E02DE133EF41E003
:1005000050E00E94090349015A019B01AC01A7EA8E
:10051000B1E40E9428036B017C01ACEEB4EFA501AD
:1005200094010E943603C60ED71EE81EF91EF7FE80
:1005300006C081E0C81AD108E10880E8F80AC8823C
:10054000D982EA82FB82C701B6019F77DF91CF9102
:10055000FF90EF90DF90CF90BF90AF909F908F90E3
:1005600008958F929F92AF92BF92CF92DF92EF92B7
:10057000FF926091020170910301809104019091BA
:100580000501611571058105910521F464E279ED9C
:100590008BE597E02DE133EF41E050E00E94090345
:1005A00049015A019B01AC01A7EAB1E40E9428036A
:1005B0006B017C01ACEEB4EFA50194010E943603FF
:1005C000C60ED71EE81EF91EF7FE06C081E0C81A47
:1005D000D108E10880E8F80AC0920201D092030134
:1005E000E0920401F0920501C701B6019F77FF90E8
:1005F000EF90DF90CF90BF90AF909F908F90089535
:1006000060930201709303018093040190930501AC
:100610000895052E97FB1EF400940E94200357FDB9
:1006200007D00E943B0307FC03D04EF40C94200338
:1006300050954095309521953F4F4F4F5F4F08950E
:1006400090958095709561957F4F8F4F9F4F08953E
:100650000E945D03A59F900DB49F900DA49F800DF7
:10066000911D11240895B7FF0C9428030E942803BC
:10067000821B930B0895A1E21A2EAA1BBB1BFD013E
:100680000DC0AA1FBB1FEE1FFF1FA217B307E40771
:10069000F50720F0A21BB30BE40BF50B661F771FC9
:1006A000881F991F1A9469F76095709580959095A9
:1006B0009B01AC01BD01CF010895A29FB001B39F82
:1006C000C001A39F700D811D1124911DB29F700D5B
:1006D000811D1124911D089597FB072E16F4009497
:1006E00007D077FD09D00E94800307FC05D03EF4B7
:1006F000909581959F4F0895709561957F4F0895CE
:10070000AA1BBB1B51E107C0AA1FBB1FA617B70737
:1007100010F0A61BB70B881F991F5A95A9F7809553
:0C0720009095BC01CD010895F894FFCF26
:06072C00020001000000C4
:00000001FF
