:100000000C945D000C9485000C9485000C94850084
:100010000C9485000C9485000C9485000C9485004C
:100020000C9485000C9485000C9485000C9485003C
:100030000C9485000C9485000C9485000C9485002C
:100040000C949B020C9485000C9485000C94850004
:100050000C9485000C9485000C9485000C9485000C
:100060000C9485000C94850000000008000201003B
:100070000003040700000000000000000000000072
:10008000250028002B0000000000240027002A0083
:10009000040404040404040402020202020203032E
:1000A0000303030301020408102040800102040836
:1000B00010200102040810209E0311241FBECFEF60
:1000C000D8E0DEBFCDBF11E0A0E0B1E0E8EDF7E0A1
:1000D00002C005900D92A834B107D9F721E0A8E439
:1000E000B1E001C01D92AA37B207E1F710E0CDE5FB
:1000F000D0E004C02197FE010E94E403CC35D10773
:10010000C9F70E94E5020C94EA030C94000090E009
:10011000FC01EC55FF4F249180579F4FFC018491C7
:10012000882399F090E0880F991FFC01EA57FF4F50
:10013000A591B491FC01E458FF4F859194918FB73C
:10014000F894EC91E22BEC938FBF0895AF92BF929D
:10015000CF92DF92EF92FF920F931F93CF93DF9393
:100160006C017B018B01040F151FEB015E01AE18C2
:10017000BF08C017D10759F06991D601ED91FC91E4
:100180000190F081E02DC6010995892B79F7C50111
:10019000DF91CF911F910F91FF90EF90DF90CF9063
:1001A000BF90AF90089590E0FC01E859FF4F249173
:1001B000FC01EC55FF4F3491FC01E057FF4FE491F7
:1001C000EE23C9F0222339F0233001F1A8F42130C5
:1001D00019F1223029F1F0E0EE0FFF1FE458FF4F34
:1001E000A591B4918FB7F894EC91611126C0309528
:1001F0003E233C938FBF08952730A9F02830C9F0E3
:10020000243049F7809180008F7D03C08091800069
:100210008F7780938000DFCF84B58F7784BDDBCF6D
:1002200084B58F7DFBCF8091B0008F778093B00035
:10023000D2CF8091B0008F7DF9CF3E2BDACF3FB780
:10024000F89480914D0190914E01A0914F01B09191
:10025000500126B5A89B05C02F3F19F00196A11D9E
:10026000B11D3FBFBA2FA92F982F8827BC01CD0100
:10027000620F711D811D911D42E0660F771F881F5F
:10028000991F4A95D1F70895089590E080E0089568
:10029000CF93DF93EC0160E08E810E94D30061E098
:1002A0008E810E94D30060E08E810E94D3008BE893
:1002B00091E00197F1F7DF91CF910895CF92DF920E
:1002C000EF92FF920F931F93CF93DF936C017C010A
:1002D00087E0E80EF11CD0E0C0E0062F10E0B80186
:1002E0000C2E02C0759567950A94E2F76170F701CC
:1002F00081917F010E94D3002196C430D10579F706
:10030000C601DF91CF911F910F91FF90EF90DF9089
:10031000CF900C944801CF92DF92EF92FF920F930F
:100320001F93CF93DF93EC01F62E642F8C810E94F4
:10033000D3008D818F3F19F060E00E94D3000F2D14
:1003400010E08F8584FF25C06E0187E0C80ED11CA8
:10035000F12CE12CB8010E2C02C0759567950A941A
:10036000E2F76170F60181916F010E94D300FFEF07
:10037000EF1AFF0A88E0E816F10461F7CE01DF9179
:10038000CF911F910F91FF90EF90DF90CF900C9441
:100390004801B80184E0759567958A95E1F7CE012B
:1003A0000E945E016F2DCE01DF91CF911F910F91C1
:1003B000FF90EF90DF90CF900C945E01CF93DF938E
:1003C000823029F49091710198609093710180932B
:1003D00075011092760180E48093770180E180932B
:1003E000780180E580937901809166010E94870001
:1003F000809167018F3F11F00E9487008091680112
:100400000E948700C2E6D1E09E01225631408091D1
:10041000710184FD0AC084E090E021962817390715
:100420003CF48E810E948700EFCF88E090E0F5CF0A
:100430008BE39DE00197F1F760E0809166010E94F7
:10044000D30060E0809168010E94D3008091670131
:100450008F3F19F060E00E94D3006091710164FD4C
:1004600045C063E082E691E00E945E01CBE4D6E401
:10047000CE010197F1F763E082E691E00E945E0110
:100480002197F1F763E082E691E00E945E0183E547
:1004900092E00197F1F762E082E691E00E945E014E
:1004A00060917101606240E082E691E00E948B0100
:1004B00084E08093720140E06CE082E691E00E946B
:1004C0008B0140E061E082E691E00E948B018BE3CA
:1004D0009FE10197F1F782E08093730140E066E0CD
:1004E00082E691E0DF91CF910C948B01606240E055
:1004F00082E691E00E948B018BE496E40197F1F78C
:1005000060917101606240E082E691E00E948B019F
:1005100083E592E00197F1F760917101606240E03C
:1005200082E691E00E948B01BBCF41E00E948B01EB
:1005300081E090E008951F920F920FB60F92112460
:100540002F933F938F939F93AF93BF9380914901D4
:1005500090914A01A0914B01B0914C01309148011A
:1005600023E0230F2D3758F50196A11DB11D2093CF
:1005700048018093490190934A01A0934B01B093A5
:100580004C0180914D0190914E01A0914F01B0918D
:1005900050010196A11DB11D80934D0190934E0114
:1005A000A0934F01B0935001BF91AF919F918F9154
:1005B0003F912F910F900FBE0F901F90189526E836
:1005C000230F0296A11DB11DD2CF789484B582600D
:1005D00084BD84B5816084BD85B5826085BD85B5E7
:1005E000816085BD80916E00816080936E00109265
:1005F00081008091810082608093810080918100E0
:100600008160809381008091800081608093800070
:100610008091B10084608093B1008091B0008160CE
:100620008093B00080917A00846080937A008091FA
:100630007A00826080937A0080917A008160809352
:100640007A0080917A00806880937A001092C100CD
:1006500082E00E94DE0191E5292E91E0392E2BE304
:10066000822E2FE1922E30E0A32E30E0B32EE0E078
:10067000F1E001900020E9F78F0101501140D0E036
:10068000C0E0C017D1070CF052C0E1E5F1E09E01D7
:1006900021553140C9018E0F9F1FB8010E94BC0334
:1006A000DC01A050BF4F8C91819381E0E136F807C7
:1006B00089F71092610140E061E082E691E00E94DA
:1006C0008B01C4010197F1F7F10101900020E9F7D6
:1006D000AF014255514061E571E082E691E00E9430
:1006E000A6000E941F012B013C0188ECC82ED12CD2
:1006F000E12CF12C0E941F016419750986099709E4
:10070000683E734081059105A8F3F1E0CF1AD10846
:10071000E108F10828EE420E23E0521E611C711C14
:10072000C114D104E104F10429F72196AACFA11440
:10073000B10409F49CCF0E94000099CFE2E6F1E0F9
:100740001382128280E491E0918380838CE0848321
:100750008FEF85838BE0868385E0878384E08087C5
:1007600083E0818782E08287138614861586168649
:10077000178681E00C94DE0197FB072E16F4009497
:1007800007D077FD09D00E94D00307FC05D03EF4C6
:10079000909581959F4F0895709561957F4F08952D
:1007A000AA1BBB1B51E107C0AA1FBB1FA617B70797
:1007B00010F0A61BB70B881F991F5A95A9F78095B3
:1007C0009095BC01CD010895EE0FFF1F0590F491A7
:0807D000E02D0994F894FFCF1D
:1007D80062656C6B6920757374756D757A64656E86
:1007E80020626972206B75732067656365722C20BF
:1007F8006B616E6164696E64616E206269722074F7
:1008080075792064757365722E2020000000000041
:080818009502A6004501440110
:00000001FF
